:020000040000fa
:080000000002040000000000f2
:020000040000fa
:040008004e030000a3
:020000040000fa
:04000c004e0300009f
:020000040000fa
:040010004e0300009b
:020000040000fa
:040014004e03000097
:020000040000fa
:040018004e03000093
:020000040000fa
:04001c004e0300008f
:020000040000fa
:040020004e0300008b
:020000040000fa
:040024004e03000087
:020000040000fa
:040028004e03000083
:020000040000fa
:04002c004e0300007f
:020000040000fa
:040030004e0300007b
:020000040000fa
:0400340024030000a1
:020000040000fa
:040038004e03000073
:020000040000fa
:04003c004e0300006f
:020000040000fa
:040040004e0300006b
:020000040000fa
:040044004e03000067
:020000040000fa
:04004800fa020000b8
:020000040000fa
:04004c004e0300005f
:020000040000fa
:040050004e0300005b
:020000040000fa
:040054004e03000057
:020000040000fa
:040058004e03000053
:020000040000fa
:04005c004e0300004f
:020000040000fa
:040060004e0300004b
:020000040000fa
:040064004e03000047
:020000040000fa
:040068004e03000043
:020000040000fa
:04006c004e0300003f
:020000040000fa
:040070004e0300003b
:020000040000fa
:040074004e03000037
:020000040000fa
:040078004e03000033
:020000040000fa
:04007c004e0300002f
:020000040000fa
:040080004e0300002b
:020000040000fa
:040084004e03000027
:020000040000fa
:040088004e03000023
:020000040000fa
:04008c004e0300001f
:020000040000fa
:040090004e0300001b
:020000040000fa
:040094004e03000017
:020000040000fa
:040098004e03000013
:020000040000fa
:04009c004e0300000f
:020000040000fa
:0400a0004e0300000b
:020000040000fa
:0400a4004e03000007
:020000040000fa
:0400a8004e03000003
:020000040000fa
:0400ac004e030000ff
:020000040000fa
:0400b0004e030000fb
:020000040000fa
:0400b4004e030000f7
:020000040000fa
:0400b8004e030000f3
:020000040000fa
:0400bc004e030000ef
:020000040000fa
:0400c0004e030000eb
:020000040000fa
:0400c4004e030000e7
:020000040000fa
:0400c8004e030000e3
:020000040000fa
:0400cc004e030000df
:020000040000fa
:0400d0004e030000db
:020000040000fa
:0400d4004e030000d7
:020000040000fa
:0400d8004e030000d3
:020000040000fa
:0400dc004e030000cf
:020000040000fa
:0400e0004e030000cb
:020000040000fa
:0400e4004e030000c7
:020000040000fa
:0400e8004e030000c3
:020000040000fa
:0400ec004e030000bf
:020000040000fa
:0400f0004e030000bb
:020000040000fa
:0400f4004e030000b7
:020000040000fa
:0400f8004e030000b3
:020000040000fa
:0400fc004e030000af
:020000040000fa
:040100004e030000aa
:020000040000fa
:040104004e030000a6
:020000040000fa
:040108004e030000a2
:020000040000fa
:04010c004e0300009e
:020000040000fa
:040110004e0300009a
:020000040000fa
:040114004e03000096
:020000040000fa
:040118004e03000092
:020000040000fa
:04011c004e0300008e
:020000040000fa
:040120004e0300008a
:020000040000fa
:040124004e03000086
:020000040000fa
:040128004e03000082
:020000040000fa
:04012c004e0300007e
:020000040000fa
:040130004e0300007a
:020000040000fa
:040134004e03000076
:020000040000fa
:040138004e03000072
:020000040000fa
:04013c004e0300006e
:020000040000fa
:040140004e0300006a
:020000040000fa
:040144004e03000066
:020000040000fa
:040148004e03000062
:020000040000fa
:04014c004e0300005e
:020000040000fa
:040150004e0300005a
:020000040000fa
:040154004e03000056
:020000040000fa
:040158004e03000052
:020000040000fa
:04015c004e0300004e
:020000040000fa
:040160004e0300004a
:020000040000fa
:040164004e03000046
:020000040000fa
:040168004e03000042
:020000040000fa
:04016c004e0300003e
:020000040000fa
:040170004e0300003a
:020000040000fa
:040174004e03000036
:020000040000fa
:040178004e03000032
:020000040000fa
:04017c004e0300002e
:020000040000fa
:040180004e0300002a
:020000040000fa
:040184004e03000026
:020000040000fa
:040188004e03000022
:020000040000fa
:04018c004e0300001e
:020000040000fa
:040190004e0300001a
:020000040000fa
:040194004e03000016
:020000040000fa
:040198004e03000012
:020000040000fa
:04019c004e0300000e
:020000040000fa
:0401a0004e0300000a
:020000040000fa
:0401a4004e03000006
:020000040000fa
:0401a8004e03000002
:020000040000fa
:0401ac004e030000fe
:020000040000fa
:0401b0004e030000fa
:020000040000fa
:0401b4004e030000f6
:020000040000fa
:0401b8004e030000f2
:020000040000fa
:0401bc004e030000ee
:020000040000fa
:0401c0004e030000ea
:020000040000fa
:0401c4004e030000e6
:020000040000fa
:0401c8004e030000e2
:020000040000fa
:0401cc004e030000de
:020000040000fa
:0401d0004e030000da
:020000040000fa
:0401d4004e030000d6
:020000040000fa
:0401d8004e030000d2
:020000040000fa
:0401dc004e030000ce
:020000040000fa
:0401e0004e030000ca
:020000040000fa
:0401e4004e030000c6
:020000040000fa
:0401e8004e030000c2
:020000040000fa
:0401ec004e030000be
:020000040000fa
:0401f0004e030000ba
:020000040000fa
:0401f4004e030000b6
:020000040000fa
:0401f8004e030000b2
:020000040000fa
:0401fc004e030000ae
:020000040000fa
:040200004e030000a9
:020000040000fa
:040204004e030000a5
:020000040000fa
:040208004e030000a1
:020000040000fa
:04020c004e0300009d
:020000040000fa
:040210004e03000099
:020000040000fa
:040214004e03000095
:020000040000fa
:040218004e03000091
:020000040000fa
:04021c004e0300008d
:020000040000fa
:040220004e03000089
:020000040000fa
:040224004e03000085
:020000040000fa
:040228004e03000081
:020000040000fa
:04022c004e0300007d
:020000040000fa
:040230004e03000079
:020000040000fa
:040234004e03000075
:020000040000fa
:040238004e03000071
:020000040000fa
:04023c004e0300006d
:020000040000fa
:040240004e03000069
:020000040000fa
:040244004e03000065
:020000040000fa
:040248004e03000061
:020000040000fa
:04024c004e0300005d
:020000040000fa
:040250004e03000059
:020000040000fa
:040254004e03000055
:020000040000fa
:040258004e03000051
:020000040000fa
:04025c004e0300004d
:020000040000fa
:040260004e03000049
:020000040000fa
:040264004e03000045
:020000040000fa
:040268004e03000041
:020000040000fa
:04026c004e0300003d
:020000040000fa
:040270004e03000039
:020000040000fa
:040274004e03000035
:020000040000fa
:040278004e03000031
:020000040000fa
:04027c004e0300002d
:020000040000fa
:040280004e03000029
:020000040000fa
:100400004f0121000eff2c000e01880000000000ab
:10041000000020000000e000020032000001200087
:1004200020028800140007009e0007000000e00082
:1004300003003a000086200001002000020037007f
:100440000000200001002000810f70000100320038
:100450000f000700000020000000e0000200320052
:1004600000000200000000001a0802000000000066
:100470000040da000000fe00200020000000e00044
:1004800002003200100020009001880000000600e9
:10049000a1028800800478000000eb001f003700f4
:1004a000e284440054a0b4009905ba00e2844400f8
:1004b00054a0b4009906ba00e284440054a0b400e9
:1004c0000006eb00476fde00fd07b200ae018800ba
:1004d000636ce10003003a000ad801000000eb0061
:1004e0000e003700606ce10008003a00004deb00a0
:1004f0000a05e800020039003420ec000af0a000f0
:100500008b05e900f9ff3e00040037006168e10057
:10051000010032000086eb000b00070019c7ba008b
:100520000e04e0001905ba0003003a000a00e000da
:10053000dbff3a0000000600fe07b200ae028800b2
:100540008a047800f5ff37000cd0a300e20f4d00bd
:100550001c00390089027800354dba000a05e80010
:10056000020039003420ec000af0a0008b05e900fd
:100570000f003200254dba000a05e80002003900dc
:100580003420ec000af0a0008b05e90008003200de
:100590000c00e0000600320015cdba000a05e800a4
:1005a000020039003420ec000af0a0008b05e900bd
:1005b0008984e80054a0b4000b00e000e2ff3a0098
:1005c000000006009902ba00055d78008b05e9007d
:1005d000f7ff3200c82ade00055d78008b05e900d0
:1005e000f3ff32000c00e000f1ff320019ddba0029
:1005f000eeff3700809fbe000000fa000108a9004e
:1006000021718000004020000080600000f0a70001
:100610000000ea000000e9004f00de000040780022
:100620000080fb00610060004a00dd002171800055
:1006300001a0a10001007000207188000080fa0074
:100640004f00be0000400600809fbe000000fa0080
:100650000068a90021738000000420000080600071
:1006600000f0a7000000ea000000e9004f00de00f3
:10067000004078000080fb00610060004600dd0063
:10068000217380000160a1000100700020738800c8
:100690000080fa004f00be00004006000040da0073
:1006a0000000fe0000000500889fbe008a9fbe007b
:1006b0008c1f7800980007009f00330003866c00b1
:1006c0006450e1002e0032006420e100330032006b
:1006d0006150e1002f0032006120e1003100320062
:1006e00085855500eb07b0000900200008042000b4
:1006f000050037000804440089844c000a003100da
:100700000603430087834b000001530081815b0097
:10071000f8ff33000203be000800a00008044400f4
:1007200089844c00f6ff3900c639dd00830173006f
:1007300001003200130020008904d1000884d30096
:100740000998a300050032000800a7000300a000dc
:100750008904d1000884d3008b05e8008904d10006
:100760000884d3000001eb000281d2002f000700b3
:1007700001f0a1000cf0a70001f0a0007700370005
:100780006420e100790032000801be000200be00d2
:10079000f7ff37006120e100740032006000b8000c
:1007a000f3ff37000000200001f82700f0ff3700ba
:1007b00014002000a4003700f4ff2f00a20037002f
:1007c0000001be003f0007000470a70003f0a10075
:1007d00003f8a30013003a006509b10010003200cd
:1007e000090035006928e1000200350001002800f9
:1007f0000000050000004000818048008502e900fb
:10080000fcff3a0000000600f88f420005003500aa
:100810008100d1000080d3008502e800fcff3a008f
:10082000000006008000eb000000050081002000b1
:10083000618055000b003d000b00200061fe2f0081
:100840000100e1001d00340082817100610164003b
:100850008904d1000884d3000000e800faff3a00c0
:10086000710020006100640003007000020060005d
:100870000900320061044400e0844c000988a500ae
:10088000050032008b05e8006808e10002003a002c
:100890008904d1000884d300f20f20000258e1003f
:1008a00005003d00c75ddd00f907b20089807500d5
:1008b00008007800000006000bf827008b00780085
:1008c00000000500c70ade00f107b200f50fb20014
:1008d00008003200e1cf4200020032000170a000a7
:1008e00024000500810f700001003200040805009b
:1008f00044000500810f700002003a00140005005a
:100900008502e9000000400081c04800fcff3b0078
:100910000170a000240005000004be00e9ff0700ec
:100920000003be000405be000200be00e5ff070094
:10093000844f7500000006000200be006450e10014
:10094000050036006420e100020036000968a300bb
:1009500001003a000800be000160a0004f067800c8
:100960004f05be004f04be0000000600f0ff2f0040
:10097000f1ff2700f9ff3700889fbe008a9fbe0065
:100980008c1f7800e4ff0700ebff330003866c0048
:100990006450e100240032006420e10027003200ae
:1009a0006150e100220032006120e10021003200ac
:1009b0008b854200eb07b1000134b800003ab80063
:1009c0000804420089844a00013ab8000030b800a7
:1009d0008880400009014a00040033000000400004
:1009e00081804800020149008b05e900c909dd004a
:1009f000830170000100320013002000c814de00e3
:100a00004814dd004709de001200b200c808de000d
:100a10000884700085ff070001f0a1000cf0a7001a
:100a200001f0a000cdff37006120e100cfff3200d0
:100a30000801be000200be00f7ff37006150e10070
:100a4000fcff3a00c9ff3700889fbe008a9fbe00a6
:100a5000841f7800b0ff07004f00780011003300ba
:100a6000f0ff2f00838f6c0006003b00040565003b
:100a70000a00a7000800370009f0a60010002000b7
:100a800008003700820f5400838f5c000300390098
:100a90001000200001003e000000200009f0a70027
:100aa0000000ea004f05be004f04be000000e00059
:040ab000000006003c
:020000040000fa
:100ab4000400fa00881f7800008fbe0018c0b3003d
:100ac4006011b8001e0078009e00900039ff0700f6
:100ad4000000e00001003d000044eb000804e000d9
:100ae400030032001e0078009e00900003003700cf
:100af4001e0078009e00900001f0a2004f047800d0
:100b04000080fa00000006000800fa00881f780040
:100b1400008fbe00220798003307980018c0b30066
:100b24002e019000be0190001e0078009e009000ef
:100b340020ff07000000e00001003c000044eb003f
:100b44000804e000030032001e0078009e009000bc
:100b5400020037002e009000be0090004f04780081
:100b64000080fa00000006000800fa00881f7800e0
:100b7400008fbe00220798003307980018c0b30006
:100b84002e019000be0190001e0078009e0090008f
:100b940006ff07000000e000010035000044eb0000
:100ba4000804e000030032001e0078009e0090005c
:100bb400020037002e009000be0090004f04780021
:100bc4000080fa00000006000c00fa00881f78007c
:100bd400008fbe002207980033079800440798004e
:100be4005507980018c0b3004e019000de01900034
:100bf4001e0078009e009000eefe07000000e0005a
:100c040001003c000044eb000804e0000400320052
:100c14004e019000de019000028fbe000e003700ee
:100c240018c0b3002e019000be0190001e00780091
:100c34009e009000ddfe07000000e000010035008a
:100c44000044eb000804e000030032002e01900091
:100c5400be019000028fbe001e0078009e0090002e
:100c64004f0478000080fa00000006000400fa0037
:100c7400008fbe00b2fd2000930424001e00780003
:100c84009e00900087fe07000200200043332400ea
:100c940038ff07000080fa00000006000400fa0094
:100ca400008fbe00b2fd2000930424001e007800d3
:100cb4009e0090002fff0700020020004333240011
:100cc40078fe07000080fa00000006000000fa0029
:100cd4001160800080ff2f00008060001060880099
:100ce40000fa20002060880023aca800238ca80010
:100cf40011618000f03f2f000080600000a0a00080
:100d0400106188003000200020618800c3aca80076
:100d1400c38ca80011668000f03f2f0000806000a3
:100d240000a0a00010668800300020002066880023
:100d340001eca8000080fa00000006000600fa009a
:100d4400881f7800000f7800120798002307980086
:100d54001e0078000000e00031003200e10f500076
:100d64005e003a001e019000ae01900042808800af
:100d74005380880018c0b3006011b8001e009000b2
:100d8400ae00900089fe07000000e000010035007d
:100d94000044eb000804e0000400320015cea80073
:100da40023cca80015eea90023eca90018c0b300b9
:100db4006011b8001e009000ae0090007dfe070098
:100dc4000000e00001003c000044eb000804e000e7
:100dd400090032001e009000ae00900034ff0700ae
:100de400100798002107980015eea80023eca8002e
:100df40015cea90023cca90040808000518080003a
:100e04000200200003222400dafe070028ff070066
:100e14006afe070000007800306188002f00370068
:100e24001e019000ae0190008280880093808800ab
:100e340018c0b3006011b8001e009000ae0090000e
:100e44005afe07000000e000010035000044eb00fa
:100e54000804e0000400320024cea800c3cca8009b
:100e640024eea900c3eca90018c0b3006011b800b7
:100e74001e009000ae0090004efe07000000e0004f
:100e840001003c000044eb000804e00009003200cb
:100e94001e009000ae00900005ff070010079800a8
:100ea4002107980024eea800c3eca80024cea900d2
:100eb400c3cca900808080009180800002002000c3
:100ec40003222400abfe0700f9fe07003bfe0700e7
:100ed4000000780030668800000000004f047800ad
:100ee4000080fa00000006000000fa00f003200071
:100ef400303a8800213a8000f0f32f00008060002f
:100f0400203a8800213a800000fe2f000080600013
:100f14000000a000203a8800120020008007200072
:100f2400a1092000337420008049780081497800a9
:100f340082497800103a8000000178000200a00085
:100f4400600420007105200023742000804978008b
:100f5400814978008249780000000000113a80003d
:100f6400000027008080600000002100808f500076
:100f7400faff3a0000000000113a8000000220004d
:100f8400008060000000e000fbff32000080fa00f7
:100f9400000006000000fa0013e1a90011e1a90015
:100fa4001061a8001021a90081088000f0fc2f0026
:100fb40000806000800888000a21ef000621ef000d
:100fc400202620007008880000a025006008880002
:100fd4002142800080ff2f00008060000000a000fc
:100fe400204288000108a9002108a80011e1a800f6
:100ff4000080fa00000006000000fa0005e1a900e4
:1010040021088000f0fc2f00008060002008880088
:101014000421a90050d02000100888000068a9000d
:101024002068a80005e1a8000080fa00000006007e
:101034000000fa00acff07000f000700d5ff07000f
:10104400edff070021ff0700020020000322240017
:101054000000eb0039ff070002002000031f2400fa
:101064001000200035ff070064cea80064eea8003d
:10107400254ea800ffff37000000fa000e2eef00f7
:101084001e2eef002e2eef003e2eef004e2eef0010
:101094005e2eef006e2eef00214ea90060cea90057
:1010a40060eea90011cea90011eea900118ea900cd
:0c10b40011aea9000080fa000000060048
:020000040000fa
:1010c000021000001200000080000000001000006c
:1010d0000200000082000000140000000000000078
:020000040000fa
:02000004000af0
:04afe000cfff00009f
:020000040000fa
:02000004000af0
:04afe400ffff00006b
:020000040000fa
:02000004000af0
:04afe8007fff0000e7
:020000040000fa
:02000004000af0
:04afec005fff000003
:020000040000fa
:02000004000af0
:04aff00038ff000026
:020000040000fa
:02000004000af0
:04aff400ffff00005b
:00000001FF
